{
  "contractName": "SpacebearDebug",
  "abi": [
    {
      "inputs": [
        {
          "internalType": "address",
          "name": "initial_owner",
          "type": "address"
        }
      ],
      "stateMutability": "nonpayable",
      "type": "constructor"
    },
    {
      "inputs": [
        {
          "internalType": "address",
          "name": "sender",
          "type": "address"
        },
        {
          "internalType": "uint256",
          "name": "tokenId",
          "type": "uint256"
        },
        {
          "internalType": "address",
          "name": "owner",
          "type": "address"
        }
      ],
      "name": "ERC721IncorrectOwner",
      "type": "error"
    },
    {
      "inputs": [
        {
          "internalType": "address",
          "name": "operator",
          "type": "address"
        },
        {
          "internalType": "uint256",
          "name": "tokenId",
          "type": "uint256"
        }
      ],
      "name": "ERC721InsufficientApproval",
      "type": "error"
    },
    {
      "inputs": [
        {
          "internalType": "address",
          "name": "approver",
          "type": "address"
        }
      ],
      "name": "ERC721InvalidApprover",
      "type": "error"
    },
    {
      "inputs": [
        {
          "internalType": "address",
          "name": "operator",
          "type": "address"
        }
      ],
      "name": "ERC721InvalidOperator",
      "type": "error"
    },
    {
      "inputs": [
        {
          "internalType": "address",
          "name": "owner",
          "type": "address"
        }
      ],
      "name": "ERC721InvalidOwner",
      "type": "error"
    },
    {
      "inputs": [
        {
          "internalType": "address",
          "name": "receiver",
          "type": "address"
        }
      ],
      "name": "ERC721InvalidReceiver",
      "type": "error"
    },
    {
      "inputs": [
        {
          "internalType": "address",
          "name": "sender",
          "type": "address"
        }
      ],
      "name": "ERC721InvalidSender",
      "type": "error"
    },
    {
      "inputs": [
        {
          "internalType": "uint256",
          "name": "tokenId",
          "type": "uint256"
        }
      ],
      "name": "ERC721NonexistentToken",
      "type": "error"
    },
    {
      "inputs": [
        {
          "internalType": "address",
          "name": "owner",
          "type": "address"
        }
      ],
      "name": "OwnableInvalidOwner",
      "type": "error"
    },
    {
      "inputs": [
        {
          "internalType": "address",
          "name": "account",
          "type": "address"
        }
      ],
      "name": "OwnableUnauthorizedAccount",
      "type": "error"
    },
    {
      "anonymous": false,
      "inputs": [
        {
          "indexed": true,
          "internalType": "address",
          "name": "owner",
          "type": "address"
        },
        {
          "indexed": true,
          "internalType": "address",
          "name": "approved",
          "type": "address"
        },
        {
          "indexed": true,
          "internalType": "uint256",
          "name": "tokenId",
          "type": "uint256"
        }
      ],
      "name": "Approval",
      "type": "event"
    },
    {
      "anonymous": false,
      "inputs": [
        {
          "indexed": true,
          "internalType": "address",
          "name": "owner",
          "type": "address"
        },
        {
          "indexed": true,
          "internalType": "address",
          "name": "operator",
          "type": "address"
        },
        {
          "indexed": false,
          "internalType": "bool",
          "name": "approved",
          "type": "bool"
        }
      ],
      "name": "ApprovalForAll",
      "type": "event"
    },
    {
      "anonymous": false,
      "inputs": [
        {
          "indexed": true,
          "internalType": "address",
          "name": "previousOwner",
          "type": "address"
        },
        {
          "indexed": true,
          "internalType": "address",
          "name": "newOwner",
          "type": "address"
        }
      ],
      "name": "OwnershipTransferred",
      "type": "event"
    },
    {
      "anonymous": false,
      "inputs": [
        {
          "indexed": true,
          "internalType": "address",
          "name": "from",
          "type": "address"
        },
        {
          "indexed": true,
          "internalType": "address",
          "name": "to",
          "type": "address"
        },
        {
          "indexed": true,
          "internalType": "uint256",
          "name": "tokenId",
          "type": "uint256"
        }
      ],
      "name": "Transfer",
      "type": "event"
    },
    {
      "inputs": [
        {
          "internalType": "address",
          "name": "to",
          "type": "address"
        },
        {
          "internalType": "uint256",
          "name": "tokenId",
          "type": "uint256"
        }
      ],
      "name": "approve",
      "outputs": [],
      "stateMutability": "nonpayable",
      "type": "function"
    },
    {
      "inputs": [
        {
          "internalType": "address",
          "name": "owner",
          "type": "address"
        }
      ],
      "name": "balanceOf",
      "outputs": [
        {
          "internalType": "uint256",
          "name": "",
          "type": "uint256"
        }
      ],
      "stateMutability": "view",
      "type": "function",
      "constant": true
    },
    {
      "inputs": [
        {
          "internalType": "uint256",
          "name": "tokenId",
          "type": "uint256"
        }
      ],
      "name": "getApproved",
      "outputs": [
        {
          "internalType": "address",
          "name": "",
          "type": "address"
        }
      ],
      "stateMutability": "view",
      "type": "function",
      "constant": true
    },
    {
      "inputs": [
        {
          "internalType": "address",
          "name": "owner",
          "type": "address"
        },
        {
          "internalType": "address",
          "name": "operator",
          "type": "address"
        }
      ],
      "name": "isApprovedForAll",
      "outputs": [
        {
          "internalType": "bool",
          "name": "",
          "type": "bool"
        }
      ],
      "stateMutability": "view",
      "type": "function",
      "constant": true
    },
    {
      "inputs": [],
      "name": "name",
      "outputs": [
        {
          "internalType": "string",
          "name": "",
          "type": "string"
        }
      ],
      "stateMutability": "view",
      "type": "function",
      "constant": true
    },
    {
      "inputs": [],
      "name": "owner",
      "outputs": [
        {
          "internalType": "address",
          "name": "",
          "type": "address"
        }
      ],
      "stateMutability": "view",
      "type": "function",
      "constant": true
    },
    {
      "inputs": [
        {
          "internalType": "uint256",
          "name": "tokenId",
          "type": "uint256"
        }
      ],
      "name": "ownerOf",
      "outputs": [
        {
          "internalType": "address",
          "name": "",
          "type": "address"
        }
      ],
      "stateMutability": "view",
      "type": "function",
      "constant": true
    },
    {
      "inputs": [],
      "name": "renounceOwnership",
      "outputs": [],
      "stateMutability": "nonpayable",
      "type": "function"
    },
    {
      "inputs": [
        {
          "internalType": "address",
          "name": "from",
          "type": "address"
        },
        {
          "internalType": "address",
          "name": "to",
          "type": "address"
        },
        {
          "internalType": "uint256",
          "name": "tokenId",
          "type": "uint256"
        }
      ],
      "name": "safeTransferFrom",
      "outputs": [],
      "stateMutability": "nonpayable",
      "type": "function"
    },
    {
      "inputs": [
        {
          "internalType": "address",
          "name": "from",
          "type": "address"
        },
        {
          "internalType": "address",
          "name": "to",
          "type": "address"
        },
        {
          "internalType": "uint256",
          "name": "tokenId",
          "type": "uint256"
        },
        {
          "internalType": "bytes",
          "name": "data",
          "type": "bytes"
        }
      ],
      "name": "safeTransferFrom",
      "outputs": [],
      "stateMutability": "nonpayable",
      "type": "function"
    },
    {
      "inputs": [
        {
          "internalType": "address",
          "name": "operator",
          "type": "address"
        },
        {
          "internalType": "bool",
          "name": "approved",
          "type": "bool"
        }
      ],
      "name": "setApprovalForAll",
      "outputs": [],
      "stateMutability": "nonpayable",
      "type": "function"
    },
    {
      "inputs": [],
      "name": "symbol",
      "outputs": [
        {
          "internalType": "string",
          "name": "",
          "type": "string"
        }
      ],
      "stateMutability": "view",
      "type": "function",
      "constant": true
    },
    {
      "inputs": [
        {
          "internalType": "address",
          "name": "from",
          "type": "address"
        },
        {
          "internalType": "address",
          "name": "to",
          "type": "address"
        },
        {
          "internalType": "uint256",
          "name": "tokenId",
          "type": "uint256"
        }
      ],
      "name": "transferFrom",
      "outputs": [],
      "stateMutability": "nonpayable",
      "type": "function"
    },
    {
      "inputs": [
        {
          "internalType": "address",
          "name": "newOwner",
          "type": "address"
        }
      ],
      "name": "transferOwnership",
      "outputs": [],
      "stateMutability": "nonpayable",
      "type": "function"
    },
    {
      "inputs": [
        {
          "internalType": "address",
          "name": "to",
          "type": "address"
        }
      ],
      "name": "safeMint",
      "outputs": [
        {
          "internalType": "uint256",
          "name": "",
          "type": "uint256"
        }
      ],
      "stateMutability": "nonpayable",
      "type": "function"
    },
    {
      "inputs": [],
      "name": "buyToken",
      "outputs": [],
      "stateMutability": "payable",
      "type": "function",
      "payable": true
    },
    {
      "inputs": [
        {
          "internalType": "uint256",
          "name": "tokenId",
          "type": "uint256"
        }
      ],
      "name": "tokenURI",
      "outputs": [
        {
          "internalType": "string",
          "name": "",
          "type": "string"
        }
      ],
      "stateMutability": "pure",
      "type": "function",
      "constant": true
    },
    {
      "inputs": [
        {
          "internalType": "bytes4",
          "name": "interfaceId",
          "type": "bytes4"
        }
      ],
      "name": "supportsInterface",
      "outputs": [
        {
          "internalType": "bool",
          "name": "",
          "type": "bool"
        }
      ],
      "stateMutability": "view",
      "type": "function",
      "constant": true
    }
  ],
  "bytecode": "0x608060405234801562000010575f80fd5b50604051620029e4380380620029e483398181016040528101906200003691906200027c565b806040518060400160405280600981526020017f53706163654265617200000000000000000000000000000000000000000000008152506040518060400160405280600381526020017f5342520000000000000000000000000000000000000000000000000000000000815250815f9081620000b3919062000510565b508060019081620000c5919062000510565b5050505f73ffffffffffffffffffffffffffffffffffffffff168173ffffffffffffffffffffffffffffffffffffffff16036200013b575f6040517f1e4fbdf700000000000000000000000000000000000000000000000000000000815260040162000132919062000605565b60405180910390fd5b6200014c816200015460201b60201c565b505062000620565b5f60065f9054906101000a900473ffffffffffffffffffffffffffffffffffffffff1690508160065f6101000a81548173ffffffffffffffffffffffffffffffffffffffff021916908373ffffffffffffffffffffffffffffffffffffffff1602179055508173ffffffffffffffffffffffffffffffffffffffff168173ffffffffffffffffffffffffffffffffffffffff167f8be0079c531659141344cd1fd0a4f28419497f9722a3daafe3b4186f6b6457e060405160405180910390a35050565b5f80fd5b5f73ffffffffffffffffffffffffffffffffffffffff82169050919050565b5f62000246826200021b565b9050919050565b62000258816200023a565b811462000263575f80fd5b50565b5f8151905062000276816200024d565b92915050565b5f6020828403121562000294576200029362000217565b5b5f620002a38482850162000266565b91505092915050565b5f81519050919050565b7f4e487b71000000000000000000000000000000000000000000000000000000005f52604160045260245ffd5b7f4e487b71000000000000000000000000000000000000000000000000000000005f52602260045260245ffd5b5f60028204905060018216806200032857607f821691505b6020821081036200033e576200033d620002e3565b5b50919050565b5f819050815f5260205f209050919050565b5f6020601f8301049050919050565b5f82821b905092915050565b5f60088302620003a27fffffffffffffffffffffffffffffffffffffffffffffffffffffffffffffffff8262000365565b620003ae868362000365565b95508019841693508086168417925050509392505050565b5f819050919050565b5f819050919050565b5f620003f8620003f2620003ec84620003c6565b620003cf565b620003c6565b9050919050565b5f819050919050565b6200041383620003d8565b6200042b6200042282620003ff565b84845462000371565b825550505050565b5f90565b6200044162000433565b6200044e81848462000408565b505050565b5b818110156200047557620004695f8262000437565b60018101905062000454565b5050565b601f821115620004c4576200048e8162000344565b620004998462000356565b81016020851015620004a9578190505b620004c1620004b88562000356565b83018262000453565b50505b505050565b5f82821c905092915050565b5f620004e65f1984600802620004c9565b1980831691505092915050565b5f620005008383620004d5565b9150826002028217905092915050565b6200051b82620002ac565b67ffffffffffffffff811115620005375762000536620002b6565b5b62000543825462000310565b6200055082828562000479565b5f60209050601f83116001811462000586575f841562000571578287015190505b6200057d8582620004f3565b865550620005ec565b601f198416620005968662000344565b5f5b82811015620005bf5784890151825560018201915060208501945060208101905062000598565b86831015620005df5784890151620005db601f891682620004d5565b8355505b6001600288020188555050505b505050505050565b620005ff816200023a565b82525050565b5f6020820190506200061a5f830184620005f4565b92915050565b6123b6806200062e5f395ff3fe608060405260043610610108575f3560e01c8063715018a611610094578063a482171911610063578063a48217191461036c578063b88d4fde14610376578063c87b56dd1461039e578063e985e9c5146103da578063f2fde38b1461041657610108565b8063715018a6146102da5780638da5cb5b146102f057806395d89b411461031a578063a22cb4651461034457610108565b806323b872dd116100db57806323b872dd146101d657806340d097c3146101fe57806342842e0e1461023a5780636352211e1461026257806370a082311461029e57610108565b806301ffc9a71461010c57806306fdde0314610148578063081812fc14610172578063095ea7b3146101ae575b5f80fd5b348015610117575f80fd5b50610132600480360381019061012d91906119d0565b61043e565b60405161013f9190611a15565b60405180910390f35b348015610153575f80fd5b5061015c61044f565b6040516101699190611ab8565b60405180910390f35b34801561017d575f80fd5b5061019860048036038101906101939190611b0b565b6104de565b6040516101a59190611b75565b60405180910390f35b3480156101b9575f80fd5b506101d460048036038101906101cf9190611bb8565b6104f9565b005b3480156101e1575f80fd5b506101fc60048036038101906101f79190611bf6565b61050f565b005b348015610209575f80fd5b50610224600480360381019061021f9190611c46565b61060e565b6040516102319190611c80565b60405180910390f35b348015610245575f80fd5b50610260600480360381019061025b9190611bf6565b610643565b005b34801561026d575f80fd5b5061028860048036038101906102839190611b0b565b610662565b6040516102959190611b75565b60405180910390f35b3480156102a9575f80fd5b506102c460048036038101906102bf9190611c46565b610673565b6040516102d19190611c80565b60405180910390f35b3480156102e5575f80fd5b506102ee610729565b005b3480156102fb575f80fd5b5061030461073c565b6040516103119190611b75565b60405180910390f35b348015610325575f80fd5b5061032e610764565b60405161033b9190611ab8565b60405180910390f35b34801561034f575f80fd5b5061036a60048036038101906103659190611cc3565b6107f4565b005b61037461080a565b005b348015610381575f80fd5b5061039c60048036038101906103979190611e2d565b61091a565b005b3480156103a9575f80fd5b506103c460048036038101906103bf9190611b0b565b61093f565b6040516103d19190611ab8565b60405180910390f35b3480156103e5575f80fd5b5061040060048036038101906103fb9190611ead565b61097d565b60405161040d9190611a15565b60405180910390f35b348015610421575f80fd5b5061043c60048036038101906104379190611c46565b610a0b565b005b5f61044882610a8f565b9050919050565b60605f805461045d90611f18565b80601f016020809104026020016040519081016040528092919081815260200182805461048990611f18565b80156104d45780601f106104ab576101008083540402835291602001916104d4565b820191905f5260205f20905b8154815290600101906020018083116104b757829003601f168201915b5050505050905090565b5f6104e882610b70565b506104f282610bf6565b9050919050565b61050b8282610506610c2f565b610c36565b5050565b5f73ffffffffffffffffffffffffffffffffffffffff168273ffffffffffffffffffffffffffffffffffffffff160361057f575f6040517f64a0ae920000000000000000000000000000000000000000000000000000000081526004016105769190611b75565b60405180910390fd5b5f610592838361058d610c2f565b610c48565b90508373ffffffffffffffffffffffffffffffffffffffff168173ffffffffffffffffffffffffffffffffffffffff1614610608578382826040517f64283d7b0000000000000000000000000000000000000000000000000000000081526004016105ff93929190611f48565b60405180910390fd5b50505050565b5f610617610e53565b5f60075f81548092919061062a90611faa565b91905055905061063a8382610eda565b80915050919050565b61065d83838360405180602001604052805f81525061091a565b505050565b5f61066c82610b70565b9050919050565b5f8073ffffffffffffffffffffffffffffffffffffffff168273ffffffffffffffffffffffffffffffffffffffff16036106e4575f6040517f89c62b640000000000000000000000000000000000000000000000000000000081526004016106db9190611b75565b60405180910390fd5b60035f8373ffffffffffffffffffffffffffffffffffffffff1673ffffffffffffffffffffffffffffffffffffffff1681526020019081526020015f20549050919050565b610731610e53565b61073a5f610ef7565b565b5f60065f9054906101000a900473ffffffffffffffffffffffffffffffffffffffff16905090565b60606001805461077390611f18565b80601f016020809104026020016040519081016040528092919081815260200182805461079f90611f18565b80156107ea5780601f106107c1576101008083540402835291602001916107ea565b820191905f5260205f20905b8154815290600101906020018083116107cd57829003601f168201915b5050505050905090565b6108066107ff610c2f565b8383610fba565b5050565b5f60075490506108506040518060400160405280600881526020017f476f7420686572650000000000000000000000000000000000000000000000008152508234611123565b67016345785d8a00006001826108669190611ff1565b6108709190612024565b34146108b1576040517f08c379a00000000000000000000000000000000000000000000000000000000081526004016108a8906120af565b60405180910390fd5b600160075f8282546108c39190611ff1565b9250508190555061090d6040518060400160405280600881526020017f476f74206865726500000000000000000000000000000000000000000000000081525082600754346111c2565b6109173382610eda565b50565b61092584848461050f565b610939610930610c2f565b85858585611264565b50505050565b6060610949611410565b6001836109569190611ff1565b6040516020016109679291906121bb565b6040516020818303038152906040529050919050565b5f60055f8473ffffffffffffffffffffffffffffffffffffffff1673ffffffffffffffffffffffffffffffffffffffff1681526020019081526020015f205f8373ffffffffffffffffffffffffffffffffffffffff1673ffffffffffffffffffffffffffffffffffffffff1681526020019081526020015f205f9054906101000a900460ff16905092915050565b610a13610e53565b5f73ffffffffffffffffffffffffffffffffffffffff168173ffffffffffffffffffffffffffffffffffffffff1603610a83575f6040517f1e4fbdf7000000000000000000000000000000000000000000000000000000008152600401610a7a9190611b75565b60405180910390fd5b610a8c81610ef7565b50565b5f7f80ac58cd000000000000000000000000000000000000000000000000000000007bffffffffffffffffffffffffffffffffffffffffffffffffffffffff1916827bffffffffffffffffffffffffffffffffffffffffffffffffffffffff19161480610b5957507f5b5e139f000000000000000000000000000000000000000000000000000000007bffffffffffffffffffffffffffffffffffffffffffffffffffffffff1916827bffffffffffffffffffffffffffffffffffffffffffffffffffffffff1916145b80610b695750610b688261144d565b5b9050919050565b5f80610b7b836114b6565b90505f73ffffffffffffffffffffffffffffffffffffffff168173ffffffffffffffffffffffffffffffffffffffff1603610bed57826040517f7e273289000000000000000000000000000000000000000000000000000000008152600401610be49190611c80565b60405180910390fd5b80915050919050565b5f60045f8381526020019081526020015f205f9054906101000a900473ffffffffffffffffffffffffffffffffffffffff169050919050565b5f33905090565b610c4383838360016114ef565b505050565b5f80610c53846114b6565b90505f73ffffffffffffffffffffffffffffffffffffffff168373ffffffffffffffffffffffffffffffffffffffff1614610c9457610c938184866116ae565b5b5f73ffffffffffffffffffffffffffffffffffffffff168173ffffffffffffffffffffffffffffffffffffffff1614610d1f57610cd35f855f806114ef565b600160035f8373ffffffffffffffffffffffffffffffffffffffff1673ffffffffffffffffffffffffffffffffffffffff1681526020019081526020015f205f82825403925050819055505b5f73ffffffffffffffffffffffffffffffffffffffff168573ffffffffffffffffffffffffffffffffffffffff1614610d9e57600160035f8773ffffffffffffffffffffffffffffffffffffffff1673ffffffffffffffffffffffffffffffffffffffff1681526020019081526020015f205f82825401925050819055505b8460025f8681526020019081526020015f205f6101000a81548173ffffffffffffffffffffffffffffffffffffffff021916908373ffffffffffffffffffffffffffffffffffffffff160217905550838573ffffffffffffffffffffffffffffffffffffffff168273ffffffffffffffffffffffffffffffffffffffff167fddf252ad1be2c89b69c2b068fc378daa952ba7f163c4a11628f55a4df523b3ef60405160405180910390a4809150509392505050565b610e5b610c2f565b73ffffffffffffffffffffffffffffffffffffffff16610e7961073c565b73ffffffffffffffffffffffffffffffffffffffff1614610ed857610e9c610c2f565b6040517f118cdaa7000000000000000000000000000000000000000000000000000000008152600401610ecf9190611b75565b60405180910390fd5b565b610ef3828260405180602001604052805f815250611771565b5050565b5f60065f9054906101000a900473ffffffffffffffffffffffffffffffffffffffff1690508160065f6101000a81548173ffffffffffffffffffffffffffffffffffffffff021916908373ffffffffffffffffffffffffffffffffffffffff1602179055508173ffffffffffffffffffffffffffffffffffffffff168173ffffffffffffffffffffffffffffffffffffffff167f8be0079c531659141344cd1fd0a4f28419497f9722a3daafe3b4186f6b6457e060405160405180910390a35050565b5f73ffffffffffffffffffffffffffffffffffffffff168273ffffffffffffffffffffffffffffffffffffffff160361102a57816040517f5b08ba180000000000000000000000000000000000000000000000000000000081526004016110219190611b75565b60405180910390fd5b8060055f8573ffffffffffffffffffffffffffffffffffffffff1673ffffffffffffffffffffffffffffffffffffffff1681526020019081526020015f205f8473ffffffffffffffffffffffffffffffffffffffff1673ffffffffffffffffffffffffffffffffffffffff1681526020019081526020015f205f6101000a81548160ff0219169083151502179055508173ffffffffffffffffffffffffffffffffffffffff168373ffffffffffffffffffffffffffffffffffffffff167f17307eab39ab6107e8899845ad3d59bd9653f200f220920489ca2b5937696c31836040516111169190611a15565b60405180910390a3505050565b6111bd83838360405160240161113b939291906121f8565b6040516020818303038152906040527fca47c4eb000000000000000000000000000000000000000000000000000000007bffffffffffffffffffffffffffffffffffffffffffffffffffffffff19166020820180517bffffffffffffffffffffffffffffffffffffffffffffffffffffffff8381831617835250505050611794565b505050565b61125e848484846040516024016111dc9493929190612234565b6040516020818303038152906040527fa7a87853000000000000000000000000000000000000000000000000000000007bffffffffffffffffffffffffffffffffffffffffffffffffffffffff19166020820180517bffffffffffffffffffffffffffffffffffffffffffffffffffffffff8381831617835250505050611794565b50505050565b5f8373ffffffffffffffffffffffffffffffffffffffff163b1115611409578273ffffffffffffffffffffffffffffffffffffffff1663150b7a02868685856040518563ffffffff1660e01b81526004016112c294939291906122d0565b6020604051808303815f875af19250505080156112fd57506040513d601f19601f820116820180604052508101906112fa919061232e565b60015b61137e573d805f811461132b576040519150601f19603f3d011682016040523d82523d5f602084013e611330565b606091505b505f81510361137657836040517f64a0ae9200000000000000000000000000000000000000000000000000000000815260040161136d9190611b75565b60405180910390fd5b805160208201fd5b63150b7a0260e01b7bffffffffffffffffffffffffffffffffffffffffffffffffffffffff1916817bffffffffffffffffffffffffffffffffffffffffffffffffffffffff19161461140757836040517f64a0ae920000000000000000000000000000000000000000000000000000000081526004016113fe9190611b75565b60405180910390fd5b505b5050505050565b60606040518060400160405280601781526020017f68747470733a2f2f626c61626c612e636f6d2f6e66742f000000000000000000815250905090565b5f7f01ffc9a7000000000000000000000000000000000000000000000000000000007bffffffffffffffffffffffffffffffffffffffffffffffffffffffff1916827bffffffffffffffffffffffffffffffffffffffffffffffffffffffff1916149050919050565b5f60025f8381526020019081526020015f205f9054906101000a900473ffffffffffffffffffffffffffffffffffffffff169050919050565b808061152757505f73ffffffffffffffffffffffffffffffffffffffff168273ffffffffffffffffffffffffffffffffffffffff1614155b15611659575f61153684610b70565b90505f73ffffffffffffffffffffffffffffffffffffffff168373ffffffffffffffffffffffffffffffffffffffff16141580156115a057508273ffffffffffffffffffffffffffffffffffffffff168173ffffffffffffffffffffffffffffffffffffffff1614155b80156115b357506115b1818461097d565b155b156115f557826040517fa9fbf51f0000000000000000000000000000000000000000000000000000000081526004016115ec9190611b75565b60405180910390fd5b811561165757838573ffffffffffffffffffffffffffffffffffffffff168273ffffffffffffffffffffffffffffffffffffffff167f8c5be1e5ebec7d5bd14f71427d1e84f3dd0314c0f7b2291e5b200ac8c7c3b92560405160405180910390a45b505b8360045f8581526020019081526020015f205f6101000a81548173ffffffffffffffffffffffffffffffffffffffff021916908373ffffffffffffffffffffffffffffffffffffffff16021790555050505050565b6116b98383836117b7565b61176c575f73ffffffffffffffffffffffffffffffffffffffff168373ffffffffffffffffffffffffffffffffffffffff160361172d57806040517f7e2732890000000000000000000000000000000000000000000000000000000081526004016117249190611c80565b60405180910390fd5b81816040517f177e802f000000000000000000000000000000000000000000000000000000008152600401611763929190612359565b60405180910390fd5b505050565b61177b8383611877565b61178f611786610c2f565b5f858585611264565b505050565b5f6a636f6e736f6c652e6c6f6790508151602083015f808383865afa5050505050565b5f8073ffffffffffffffffffffffffffffffffffffffff168373ffffffffffffffffffffffffffffffffffffffff161415801561186e57508273ffffffffffffffffffffffffffffffffffffffff168473ffffffffffffffffffffffffffffffffffffffff16148061182f575061182e848461097d565b5b8061186d57508273ffffffffffffffffffffffffffffffffffffffff1661185583610bf6565b73ffffffffffffffffffffffffffffffffffffffff16145b5b90509392505050565b5f73ffffffffffffffffffffffffffffffffffffffff168273ffffffffffffffffffffffffffffffffffffffff16036118e7575f6040517f64a0ae920000000000000000000000000000000000000000000000000000000081526004016118de9190611b75565b60405180910390fd5b5f6118f383835f610c48565b90505f73ffffffffffffffffffffffffffffffffffffffff168173ffffffffffffffffffffffffffffffffffffffff1614611965575f6040517f73c6ac6e00000000000000000000000000000000000000000000000000000000815260040161195c9190611b75565b60405180910390fd5b505050565b5f604051905090565b5f80fd5b5f80fd5b5f7fffffffff0000000000000000000000000000000000000000000000000000000082169050919050565b6119af8161197b565b81146119b9575f80fd5b50565b5f813590506119ca816119a6565b92915050565b5f602082840312156119e5576119e4611973565b5b5f6119f2848285016119bc565b91505092915050565b5f8115159050919050565b611a0f816119fb565b82525050565b5f602082019050611a285f830184611a06565b92915050565b5f81519050919050565b5f82825260208201905092915050565b5f5b83811015611a65578082015181840152602081019050611a4a565b5f8484015250505050565b5f601f19601f8301169050919050565b5f611a8a82611a2e565b611a948185611a38565b9350611aa4818560208601611a48565b611aad81611a70565b840191505092915050565b5f6020820190508181035f830152611ad08184611a80565b905092915050565b5f819050919050565b611aea81611ad8565b8114611af4575f80fd5b50565b5f81359050611b0581611ae1565b92915050565b5f60208284031215611b2057611b1f611973565b5b5f611b2d84828501611af7565b91505092915050565b5f73ffffffffffffffffffffffffffffffffffffffff82169050919050565b5f611b5f82611b36565b9050919050565b611b6f81611b55565b82525050565b5f602082019050611b885f830184611b66565b92915050565b611b9781611b55565b8114611ba1575f80fd5b50565b5f81359050611bb281611b8e565b92915050565b5f8060408385031215611bce57611bcd611973565b5b5f611bdb85828601611ba4565b9250506020611bec85828601611af7565b9150509250929050565b5f805f60608486031215611c0d57611c0c611973565b5b5f611c1a86828701611ba4565b9350506020611c2b86828701611ba4565b9250506040611c3c86828701611af7565b9150509250925092565b5f60208284031215611c5b57611c5a611973565b5b5f611c6884828501611ba4565b91505092915050565b611c7a81611ad8565b82525050565b5f602082019050611c935f830184611c71565b92915050565b611ca2816119fb565b8114611cac575f80fd5b50565b5f81359050611cbd81611c99565b92915050565b5f8060408385031215611cd957611cd8611973565b5b5f611ce685828601611ba4565b9250506020611cf785828601611caf565b9150509250929050565b5f80fd5b5f80fd5b7f4e487b71000000000000000000000000000000000000000000000000000000005f52604160045260245ffd5b611d3f82611a70565b810181811067ffffffffffffffff82111715611d5e57611d5d611d09565b5b80604052505050565b5f611d7061196a565b9050611d7c8282611d36565b919050565b5f67ffffffffffffffff821115611d9b57611d9a611d09565b5b611da482611a70565b9050602081019050919050565b828183375f83830152505050565b5f611dd1611dcc84611d81565b611d67565b905082815260208101848484011115611ded57611dec611d05565b5b611df8848285611db1565b509392505050565b5f82601f830112611e1457611e13611d01565b5b8135611e24848260208601611dbf565b91505092915050565b5f805f8060808587031215611e4557611e44611973565b5b5f611e5287828801611ba4565b9450506020611e6387828801611ba4565b9350506040611e7487828801611af7565b925050606085013567ffffffffffffffff811115611e9557611e94611977565b5b611ea187828801611e00565b91505092959194509250565b5f8060408385031215611ec357611ec2611973565b5b5f611ed085828601611ba4565b9250506020611ee185828601611ba4565b9150509250929050565b7f4e487b71000000000000000000000000000000000000000000000000000000005f52602260045260245ffd5b5f6002820490506001821680611f2f57607f821691505b602082108103611f4257611f41611eeb565b5b50919050565b5f606082019050611f5b5f830186611b66565b611f686020830185611c71565b611f756040830184611b66565b949350505050565b7f4e487b71000000000000000000000000000000000000000000000000000000005f52601160045260245ffd5b5f611fb482611ad8565b91507fffffffffffffffffffffffffffffffffffffffffffffffffffffffffffffffff8203611fe657611fe5611f7d565b5b600182019050919050565b5f611ffb82611ad8565b915061200683611ad8565b925082820190508082111561201e5761201d611f7d565b5b92915050565b5f61202e82611ad8565b915061203983611ad8565b925082820261204781611ad8565b9150828204841483151761205e5761205d611f7d565b5b5092915050565b7f57726f6e6720616d6f756e74206f662066756e64732073656e742e00000000005f82015250565b5f612099601b83611a38565b91506120a482612065565b602082019050919050565b5f6020820190508181035f8301526120c68161208d565b9050919050565b5f81905092915050565b5f6120e182611a2e565b6120eb81856120cd565b93506120fb818560208601611a48565b80840191505092915050565b7f7370616365626561725f000000000000000000000000000000000000000000005f82015250565b5f61213b600a836120cd565b915061214682612107565b600a82019050919050565b5f819050919050565b61216b61216682611ad8565b612151565b82525050565b7f2e6a736f6e0000000000000000000000000000000000000000000000000000005f82015250565b5f6121a56005836120cd565b91506121b082612171565b600582019050919050565b5f6121c682856120d7565b91506121d18261212f565b91506121dd828461215a565b6020820191506121ec82612199565b91508190509392505050565b5f6060820190508181035f8301526122108186611a80565b905061221f6020830185611c71565b61222c6040830184611c71565b949350505050565b5f6080820190508181035f83015261224c8187611a80565b905061225b6020830186611c71565b6122686040830185611c71565b6122756060830184611c71565b95945050505050565b5f81519050919050565b5f82825260208201905092915050565b5f6122a28261227e565b6122ac8185612288565b93506122bc818560208601611a48565b6122c581611a70565b840191505092915050565b5f6080820190506122e35f830187611b66565b6122f06020830186611b66565b6122fd6040830185611c71565b818103606083015261230f8184612298565b905095945050505050565b5f81519050612328816119a6565b92915050565b5f6020828403121561234357612342611973565b5b5f6123508482850161231a565b91505092915050565b5f60408201905061236c5f830185611b66565b6123796020830184611c71565b939250505056fea2646970667358221220a9d485a758795b2c5e1e1e52222a90d082c0bd984be033703a7c12681114319f64736f6c63430008150033",
  "immutableReferences": {},
  "source": "// SPDX-License-Identifier: MIT\r\npragma solidity ^0.8.4;\r\n\r\nimport {ERC721} from \"@openzeppelin/contracts/token/ERC721/ERC721.sol\";\r\nimport {Ownable} from \"@openzeppelin/contracts/access/Ownable.sol\";\r\n\r\nimport \"@ganache/console.log/console.sol\";\r\n\r\ncontract SpacebearDebug is ERC721, Ownable {\r\n\r\n    uint256 private _nextTokenId;\r\n\r\n    constructor(address initial_owner)\r\n    ERC721(\"SpaceBear\", \"SBR\") \r\n    Ownable(initial_owner)\r\n    {}\r\n\r\n    // _baseURI => to save base uri\r\n    function _baseURI() internal pure override returns (string memory) {\r\n        return \"https://blabla.com/nft/\";\r\n    }\r\n\r\n    // safeMint(address to, string memory uri)\r\n    function safeMint(address to) \r\n    public \r\n    onlyOwner\r\n    returns (uint256)\r\n    {\r\n        uint256 tokenId = _nextTokenId++;\r\n        _safeMint(to, tokenId);\r\n        return tokenId;\r\n    }\r\n\r\n    function buyToken() public payable {\r\n        uint256 tokenId = _nextTokenId;\r\n        console.log(\"Got here\", tokenId, msg.value);\r\n        require(msg.value == (tokenId + 1) * 0.1 ether, \"Wrong amount of funds sent.\");\r\n\r\n        _nextTokenId += 1;\r\n        console.log(\"Got here\", tokenId, _nextTokenId, msg.value);\r\n        _safeMint(msg.sender, tokenId);\r\n    }\r\n\r\n    // override function needed in solidity,\r\n    // because 2 function from imported library \r\n    // have same name\r\n    function tokenURI(uint256 tokenId)\r\n    public\r\n    pure\r\n    override(ERC721)\r\n    returns (string memory)\r\n    {\r\n        return string(abi.encodePacked(_baseURI(), \"spacebear_\", (tokenId + 1), \".json\"));\r\n    }\r\n\r\n    function supportsInterface(bytes4 interfaceId) \r\n    public \r\n    view \r\n    override(ERC721)\r\n    returns (bool)\r\n    {\r\n        return super.supportsInterface(interfaceId);\r\n    }\r\n}",
  "sourcePath": "D:\\1. COMPUTER SELF-LEARNING\\blockchain\\NFT\\nft-project\\truffle-mine\\contracts\\SpacebearDebug.sol",
  "compiler": {
    "name": "solc",
    "version": "0.8.21+commit.d9974bed.Emscripten.clang"
  },
  "schemaVersion": "3.4.16",
  "updatedAt": "2025-09-13T10:11:22.432Z",
  "networkType": "ethereum",
  "devdoc": {
    "errors": {
      "ERC721IncorrectOwner(address,uint256,address)": [
        {
          "details": "Indicates an error related to the ownership over a particular token. Used in transfers.",
          "params": {
            "owner": "Address of the current owner of a token.",
            "sender": "Address whose tokens are being transferred.",
            "tokenId": "Identifier number of a token."
          }
        }
      ],
      "ERC721InsufficientApproval(address,uint256)": [
        {
          "details": "Indicates a failure with the `operator`s approval. Used in transfers.",
          "params": {
            "operator": "Address that may be allowed to operate on tokens without being their owner.",
            "tokenId": "Identifier number of a token."
          }
        }
      ],
      "ERC721InvalidApprover(address)": [
        {
          "details": "Indicates a failure with the `approver` of a token to be approved. Used in approvals.",
          "params": {
            "approver": "Address initiating an approval operation."
          }
        }
      ],
      "ERC721InvalidOperator(address)": [
        {
          "details": "Indicates a failure with the `operator` to be approved. Used in approvals.",
          "params": {
            "operator": "Address that may be allowed to operate on tokens without being their owner."
          }
        }
      ],
      "ERC721InvalidOwner(address)": [
        {
          "details": "Indicates that an address can't be an owner. For example, `address(0)` is a forbidden owner in ERC-20. Used in balance queries.",
          "params": {
            "owner": "Address of the current owner of a token."
          }
        }
      ],
      "ERC721InvalidReceiver(address)": [
        {
          "details": "Indicates a failure with the token `receiver`. Used in transfers.",
          "params": {
            "receiver": "Address to which tokens are being transferred."
          }
        }
      ],
      "ERC721InvalidSender(address)": [
        {
          "details": "Indicates a failure with the token `sender`. Used in transfers.",
          "params": {
            "sender": "Address whose tokens are being transferred."
          }
        }
      ],
      "ERC721NonexistentToken(uint256)": [
        {
          "details": "Indicates a `tokenId` whose `owner` is the zero address.",
          "params": {
            "tokenId": "Identifier number of a token."
          }
        }
      ],
      "OwnableInvalidOwner(address)": [
        {
          "details": "The owner is not a valid owner account. (eg. `address(0)`)"
        }
      ],
      "OwnableUnauthorizedAccount(address)": [
        {
          "details": "The caller account is not authorized to perform an operation."
        }
      ]
    },
    "events": {
      "Approval(address,address,uint256)": {
        "details": "Emitted when `owner` enables `approved` to manage the `tokenId` token."
      },
      "ApprovalForAll(address,address,bool)": {
        "details": "Emitted when `owner` enables or disables (`approved`) `operator` to manage all of its assets."
      },
      "Transfer(address,address,uint256)": {
        "details": "Emitted when `tokenId` token is transferred from `from` to `to`."
      }
    },
    "kind": "dev",
    "methods": {
      "approve(address,uint256)": {
        "details": "Gives permission to `to` to transfer `tokenId` token to another account. The approval is cleared when the token is transferred. Only a single account can be approved at a time, so approving the zero address clears previous approvals. Requirements: - The caller must own the token or be an approved operator. - `tokenId` must exist. Emits an {Approval} event."
      },
      "balanceOf(address)": {
        "details": "Returns the number of tokens in ``owner``'s account."
      },
      "getApproved(uint256)": {
        "details": "Returns the account approved for `tokenId` token. Requirements: - `tokenId` must exist."
      },
      "isApprovedForAll(address,address)": {
        "details": "Returns if the `operator` is allowed to manage all of the assets of `owner`. See {setApprovalForAll}"
      },
      "name()": {
        "details": "Returns the token collection name."
      },
      "owner()": {
        "details": "Returns the address of the current owner."
      },
      "ownerOf(uint256)": {
        "details": "Returns the owner of the `tokenId` token. Requirements: - `tokenId` must exist."
      },
      "renounceOwnership()": {
        "details": "Leaves the contract without owner. It will not be possible to call `onlyOwner` functions. Can only be called by the current owner. NOTE: Renouncing ownership will leave the contract without an owner, thereby disabling any functionality that is only available to the owner."
      },
      "safeTransferFrom(address,address,uint256)": {
        "details": "Safely transfers `tokenId` token from `from` to `to`, checking first that contract recipients are aware of the ERC-721 protocol to prevent tokens from being forever locked. Requirements: - `from` cannot be the zero address. - `to` cannot be the zero address. - `tokenId` token must exist and be owned by `from`. - If the caller is not `from`, it must have been allowed to move this token by either {approve} or   {setApprovalForAll}. - If `to` refers to a smart contract, it must implement {IERC721Receiver-onERC721Received}, which is called upon   a safe transfer. Emits a {Transfer} event."
      },
      "safeTransferFrom(address,address,uint256,bytes)": {
        "details": "Safely transfers `tokenId` token from `from` to `to`. Requirements: - `from` cannot be the zero address. - `to` cannot be the zero address. - `tokenId` token must exist and be owned by `from`. - If the caller is not `from`, it must be approved to move this token by either {approve} or {setApprovalForAll}. - If `to` refers to a smart contract, it must implement {IERC721Receiver-onERC721Received}, which is called upon   a safe transfer. Emits a {Transfer} event."
      },
      "setApprovalForAll(address,bool)": {
        "details": "Approve or remove `operator` as an operator for the caller. Operators can call {transferFrom} or {safeTransferFrom} for any token owned by the caller. Requirements: - The `operator` cannot be the address zero. Emits an {ApprovalForAll} event."
      },
      "supportsInterface(bytes4)": {
        "details": "Returns true if this contract implements the interface defined by `interfaceId`. See the corresponding https://eips.ethereum.org/EIPS/eip-165#how-interfaces-are-identified[ERC section] to learn more about how these ids are created. This function call must use less than 30 000 gas."
      },
      "symbol()": {
        "details": "Returns the token collection symbol."
      },
      "tokenURI(uint256)": {
        "details": "Returns the Uniform Resource Identifier (URI) for `tokenId` token."
      },
      "transferFrom(address,address,uint256)": {
        "details": "Transfers `tokenId` token from `from` to `to`. WARNING: Note that the caller is responsible to confirm that the recipient is capable of receiving ERC-721 or else they may be permanently lost. Usage of {safeTransferFrom} prevents loss, though the caller must understand this adds an external call which potentially creates a reentrancy vulnerability. Requirements: - `from` cannot be the zero address. - `to` cannot be the zero address. - `tokenId` token must be owned by `from`. - If the caller is not `from`, it must be approved to move this token by either {approve} or {setApprovalForAll}. Emits a {Transfer} event."
      },
      "transferOwnership(address)": {
        "details": "Transfers ownership of the contract to a new account (`newOwner`). Can only be called by the current owner."
      }
    },
    "version": 1
  },
  "userdoc": {
    "kind": "user",
    "methods": {},
    "version": 1
  }
}