{
  "contractName": "Spacebear",
  "abi": [
    {
      "inputs": [
        {
          "internalType": "address",
          "name": "initial_owner",
          "type": "address"
        }
      ],
      "stateMutability": "nonpayable",
      "type": "constructor"
    },
    {
      "inputs": [
        {
          "internalType": "address",
          "name": "sender",
          "type": "address"
        },
        {
          "internalType": "uint256",
          "name": "tokenId",
          "type": "uint256"
        },
        {
          "internalType": "address",
          "name": "owner",
          "type": "address"
        }
      ],
      "name": "ERC721IncorrectOwner",
      "type": "error"
    },
    {
      "inputs": [
        {
          "internalType": "address",
          "name": "operator",
          "type": "address"
        },
        {
          "internalType": "uint256",
          "name": "tokenId",
          "type": "uint256"
        }
      ],
      "name": "ERC721InsufficientApproval",
      "type": "error"
    },
    {
      "inputs": [
        {
          "internalType": "address",
          "name": "approver",
          "type": "address"
        }
      ],
      "name": "ERC721InvalidApprover",
      "type": "error"
    },
    {
      "inputs": [
        {
          "internalType": "address",
          "name": "operator",
          "type": "address"
        }
      ],
      "name": "ERC721InvalidOperator",
      "type": "error"
    },
    {
      "inputs": [
        {
          "internalType": "address",
          "name": "owner",
          "type": "address"
        }
      ],
      "name": "ERC721InvalidOwner",
      "type": "error"
    },
    {
      "inputs": [
        {
          "internalType": "address",
          "name": "receiver",
          "type": "address"
        }
      ],
      "name": "ERC721InvalidReceiver",
      "type": "error"
    },
    {
      "inputs": [
        {
          "internalType": "address",
          "name": "sender",
          "type": "address"
        }
      ],
      "name": "ERC721InvalidSender",
      "type": "error"
    },
    {
      "inputs": [
        {
          "internalType": "uint256",
          "name": "tokenId",
          "type": "uint256"
        }
      ],
      "name": "ERC721NonexistentToken",
      "type": "error"
    },
    {
      "inputs": [
        {
          "internalType": "address",
          "name": "owner",
          "type": "address"
        }
      ],
      "name": "OwnableInvalidOwner",
      "type": "error"
    },
    {
      "inputs": [
        {
          "internalType": "address",
          "name": "account",
          "type": "address"
        }
      ],
      "name": "OwnableUnauthorizedAccount",
      "type": "error"
    },
    {
      "anonymous": false,
      "inputs": [
        {
          "indexed": true,
          "internalType": "address",
          "name": "owner",
          "type": "address"
        },
        {
          "indexed": true,
          "internalType": "address",
          "name": "approved",
          "type": "address"
        },
        {
          "indexed": true,
          "internalType": "uint256",
          "name": "tokenId",
          "type": "uint256"
        }
      ],
      "name": "Approval",
      "type": "event"
    },
    {
      "anonymous": false,
      "inputs": [
        {
          "indexed": true,
          "internalType": "address",
          "name": "owner",
          "type": "address"
        },
        {
          "indexed": true,
          "internalType": "address",
          "name": "operator",
          "type": "address"
        },
        {
          "indexed": false,
          "internalType": "bool",
          "name": "approved",
          "type": "bool"
        }
      ],
      "name": "ApprovalForAll",
      "type": "event"
    },
    {
      "anonymous": false,
      "inputs": [
        {
          "indexed": false,
          "internalType": "uint256",
          "name": "_fromTokenId",
          "type": "uint256"
        },
        {
          "indexed": false,
          "internalType": "uint256",
          "name": "_toTokenId",
          "type": "uint256"
        }
      ],
      "name": "BatchMetadataUpdate",
      "type": "event"
    },
    {
      "anonymous": false,
      "inputs": [
        {
          "indexed": false,
          "internalType": "uint256",
          "name": "_tokenId",
          "type": "uint256"
        }
      ],
      "name": "MetadataUpdate",
      "type": "event"
    },
    {
      "anonymous": false,
      "inputs": [
        {
          "indexed": true,
          "internalType": "address",
          "name": "previousOwner",
          "type": "address"
        },
        {
          "indexed": true,
          "internalType": "address",
          "name": "newOwner",
          "type": "address"
        }
      ],
      "name": "OwnershipTransferred",
      "type": "event"
    },
    {
      "anonymous": false,
      "inputs": [
        {
          "indexed": true,
          "internalType": "address",
          "name": "from",
          "type": "address"
        },
        {
          "indexed": true,
          "internalType": "address",
          "name": "to",
          "type": "address"
        },
        {
          "indexed": true,
          "internalType": "uint256",
          "name": "tokenId",
          "type": "uint256"
        }
      ],
      "name": "Transfer",
      "type": "event"
    },
    {
      "inputs": [
        {
          "internalType": "address",
          "name": "to",
          "type": "address"
        },
        {
          "internalType": "uint256",
          "name": "tokenId",
          "type": "uint256"
        }
      ],
      "name": "approve",
      "outputs": [],
      "stateMutability": "nonpayable",
      "type": "function"
    },
    {
      "inputs": [
        {
          "internalType": "address",
          "name": "owner",
          "type": "address"
        }
      ],
      "name": "balanceOf",
      "outputs": [
        {
          "internalType": "uint256",
          "name": "",
          "type": "uint256"
        }
      ],
      "stateMutability": "view",
      "type": "function"
    },
    {
      "inputs": [
        {
          "internalType": "uint256",
          "name": "tokenId",
          "type": "uint256"
        }
      ],
      "name": "getApproved",
      "outputs": [
        {
          "internalType": "address",
          "name": "",
          "type": "address"
        }
      ],
      "stateMutability": "view",
      "type": "function"
    },
    {
      "inputs": [
        {
          "internalType": "address",
          "name": "owner",
          "type": "address"
        },
        {
          "internalType": "address",
          "name": "operator",
          "type": "address"
        }
      ],
      "name": "isApprovedForAll",
      "outputs": [
        {
          "internalType": "bool",
          "name": "",
          "type": "bool"
        }
      ],
      "stateMutability": "view",
      "type": "function"
    },
    {
      "inputs": [],
      "name": "name",
      "outputs": [
        {
          "internalType": "string",
          "name": "",
          "type": "string"
        }
      ],
      "stateMutability": "view",
      "type": "function"
    },
    {
      "inputs": [],
      "name": "owner",
      "outputs": [
        {
          "internalType": "address",
          "name": "",
          "type": "address"
        }
      ],
      "stateMutability": "view",
      "type": "function"
    },
    {
      "inputs": [
        {
          "internalType": "uint256",
          "name": "tokenId",
          "type": "uint256"
        }
      ],
      "name": "ownerOf",
      "outputs": [
        {
          "internalType": "address",
          "name": "",
          "type": "address"
        }
      ],
      "stateMutability": "view",
      "type": "function"
    },
    {
      "inputs": [],
      "name": "renounceOwnership",
      "outputs": [],
      "stateMutability": "nonpayable",
      "type": "function"
    },
    {
      "inputs": [
        {
          "internalType": "address",
          "name": "from",
          "type": "address"
        },
        {
          "internalType": "address",
          "name": "to",
          "type": "address"
        },
        {
          "internalType": "uint256",
          "name": "tokenId",
          "type": "uint256"
        }
      ],
      "name": "safeTransferFrom",
      "outputs": [],
      "stateMutability": "nonpayable",
      "type": "function"
    },
    {
      "inputs": [
        {
          "internalType": "address",
          "name": "from",
          "type": "address"
        },
        {
          "internalType": "address",
          "name": "to",
          "type": "address"
        },
        {
          "internalType": "uint256",
          "name": "tokenId",
          "type": "uint256"
        },
        {
          "internalType": "bytes",
          "name": "data",
          "type": "bytes"
        }
      ],
      "name": "safeTransferFrom",
      "outputs": [],
      "stateMutability": "nonpayable",
      "type": "function"
    },
    {
      "inputs": [
        {
          "internalType": "address",
          "name": "operator",
          "type": "address"
        },
        {
          "internalType": "bool",
          "name": "approved",
          "type": "bool"
        }
      ],
      "name": "setApprovalForAll",
      "outputs": [],
      "stateMutability": "nonpayable",
      "type": "function"
    },
    {
      "inputs": [],
      "name": "symbol",
      "outputs": [
        {
          "internalType": "string",
          "name": "",
          "type": "string"
        }
      ],
      "stateMutability": "view",
      "type": "function"
    },
    {
      "inputs": [
        {
          "internalType": "address",
          "name": "from",
          "type": "address"
        },
        {
          "internalType": "address",
          "name": "to",
          "type": "address"
        },
        {
          "internalType": "uint256",
          "name": "tokenId",
          "type": "uint256"
        }
      ],
      "name": "transferFrom",
      "outputs": [],
      "stateMutability": "nonpayable",
      "type": "function"
    },
    {
      "inputs": [
        {
          "internalType": "address",
          "name": "newOwner",
          "type": "address"
        }
      ],
      "name": "transferOwnership",
      "outputs": [],
      "stateMutability": "nonpayable",
      "type": "function"
    },
    {
      "inputs": [
        {
          "internalType": "address",
          "name": "to",
          "type": "address"
        },
        {
          "internalType": "string",
          "name": "uri",
          "type": "string"
        }
      ],
      "name": "safeMint",
      "outputs": [
        {
          "internalType": "uint256",
          "name": "",
          "type": "uint256"
        }
      ],
      "stateMutability": "nonpayable",
      "type": "function"
    },
    {
      "inputs": [],
      "name": "buyToken",
      "outputs": [],
      "stateMutability": "payable",
      "type": "function"
    },
    {
      "inputs": [
        {
          "internalType": "uint256",
          "name": "tokenId",
          "type": "uint256"
        }
      ],
      "name": "tokenURI",
      "outputs": [
        {
          "internalType": "string",
          "name": "",
          "type": "string"
        }
      ],
      "stateMutability": "view",
      "type": "function"
    },
    {
      "inputs": [
        {
          "internalType": "bytes4",
          "name": "interfaceId",
          "type": "bytes4"
        }
      ],
      "name": "supportsInterface",
      "outputs": [
        {
          "internalType": "bool",
          "name": "",
          "type": "bool"
        }
      ],
      "stateMutability": "view",
      "type": "function"
    }
  ],
  "bytecode": "0x608060405234801562000010575f80fd5b5060405162002e1a38038062002e1a83398181016040528101906200003691906200027c565b806040518060400160405280600981526020017f53706163654265617200000000000000000000000000000000000000000000008152506040518060400160405280600381526020017f5342520000000000000000000000000000000000000000000000000000000000815250815f9081620000b3919062000510565b508060019081620000c5919062000510565b5050505f73ffffffffffffffffffffffffffffffffffffffff168173ffffffffffffffffffffffffffffffffffffffff16036200013b575f6040517f1e4fbdf700000000000000000000000000000000000000000000000000000000815260040162000132919062000605565b60405180910390fd5b6200014c816200015460201b60201c565b505062000620565b5f60075f9054906101000a900473ffffffffffffffffffffffffffffffffffffffff1690508160075f6101000a81548173ffffffffffffffffffffffffffffffffffffffff021916908373ffffffffffffffffffffffffffffffffffffffff1602179055508173ffffffffffffffffffffffffffffffffffffffff168173ffffffffffffffffffffffffffffffffffffffff167f8be0079c531659141344cd1fd0a4f28419497f9722a3daafe3b4186f6b6457e060405160405180910390a35050565b5f80fd5b5f73ffffffffffffffffffffffffffffffffffffffff82169050919050565b5f62000246826200021b565b9050919050565b62000258816200023a565b811462000263575f80fd5b50565b5f8151905062000276816200024d565b92915050565b5f6020828403121562000294576200029362000217565b5b5f620002a38482850162000266565b91505092915050565b5f81519050919050565b7f4e487b71000000000000000000000000000000000000000000000000000000005f52604160045260245ffd5b7f4e487b71000000000000000000000000000000000000000000000000000000005f52602260045260245ffd5b5f60028204905060018216806200032857607f821691505b6020821081036200033e576200033d620002e3565b5b50919050565b5f819050815f5260205f209050919050565b5f6020601f8301049050919050565b5f82821b905092915050565b5f60088302620003a27fffffffffffffffffffffffffffffffffffffffffffffffffffffffffffffffff8262000365565b620003ae868362000365565b95508019841693508086168417925050509392505050565b5f819050919050565b5f819050919050565b5f620003f8620003f2620003ec84620003c6565b620003cf565b620003c6565b9050919050565b5f819050919050565b6200041383620003d8565b6200042b6200042282620003ff565b84845462000371565b825550505050565b5f90565b6200044162000433565b6200044e81848462000408565b505050565b5b818110156200047557620004695f8262000437565b60018101905062000454565b5050565b601f821115620004c4576200048e8162000344565b620004998462000356565b81016020851015620004a9578190505b620004c1620004b88562000356565b83018262000453565b50505b505050565b5f82821c905092915050565b5f620004e65f1984600802620004c9565b1980831691505092915050565b5f620005008383620004d5565b9150826002028217905092915050565b6200051b82620002ac565b67ffffffffffffffff811115620005375762000536620002b6565b5b62000543825462000310565b6200055082828562000479565b5f60209050601f83116001811462000586575f841562000571578287015190505b6200057d8582620004f3565b865550620005ec565b601f198416620005968662000344565b5f5b82811015620005bf5784890151825560018201915060208501945060208101905062000598565b86831015620005df5784890151620005db601f891682620004d5565b8355505b6001600288020188555050505b505050505050565b620005ff816200023a565b82525050565b5f6020820190506200061a5f830184620005f4565b92915050565b6127ec806200062e5f395ff3fe608060405260043610610108575f3560e01c80638da5cb5b11610094578063b88d4fde11610063578063b88d4fde1461033a578063c87b56dd14610362578063d204c45e1461039e578063e985e9c5146103da578063f2fde38b1461041657610108565b80638da5cb5b146102b457806395d89b41146102de578063a22cb46514610308578063a48217191461033057610108565b806323b872dd116100db57806323b872dd146101d657806342842e0e146101fe5780636352211e1461022657806370a0823114610262578063715018a61461029e57610108565b806301ffc9a71461010c57806306fdde0314610148578063081812fc14610172578063095ea7b3146101ae575b5f80fd5b348015610117575f80fd5b50610132600480360381019061012d9190611bfc565b61043e565b60405161013f9190611c41565b60405180910390f35b348015610153575f80fd5b5061015c61044f565b6040516101699190611ce4565b60405180910390f35b34801561017d575f80fd5b5061019860048036038101906101939190611d37565b6104de565b6040516101a59190611da1565b60405180910390f35b3480156101b9575f80fd5b506101d460048036038101906101cf9190611de4565b6104f9565b005b3480156101e1575f80fd5b506101fc60048036038101906101f79190611e22565b61050f565b005b348015610209575f80fd5b50610224600480360381019061021f9190611e22565b61060e565b005b348015610231575f80fd5b5061024c60048036038101906102479190611d37565b61062d565b6040516102599190611da1565b60405180910390f35b34801561026d575f80fd5b5061028860048036038101906102839190611e72565b61063e565b6040516102959190611eac565b60405180910390f35b3480156102a9575f80fd5b506102b26106f4565b005b3480156102bf575f80fd5b506102c8610707565b6040516102d59190611da1565b60405180910390f35b3480156102e9575f80fd5b506102f261072f565b6040516102ff9190611ce4565b60405180910390f35b348015610313575f80fd5b5061032e60048036038101906103299190611eef565b6107bf565b005b6103386107d5565b005b348015610345575f80fd5b50610360600480360381019061035b9190612059565b610850565b005b34801561036d575f80fd5b5061038860048036038101906103839190611d37565b610875565b6040516103959190611ce4565b60405180910390f35b3480156103a9575f80fd5b506103c460048036038101906103bf9190612177565b610887565b6040516103d19190611eac565b60405180910390f35b3480156103e5575f80fd5b5061040060048036038101906103fb91906121d1565b6108c7565b60405161040d9190611c41565b60405180910390f35b348015610421575f80fd5b5061043c60048036038101906104379190611e72565b610955565b005b5f610448826109d9565b9050919050565b60605f805461045d9061223c565b80601f01602080910402602001604051908101604052809291908181526020018280546104899061223c565b80156104d45780601f106104ab576101008083540402835291602001916104d4565b820191905f5260205f20905b8154815290600101906020018083116104b757829003601f168201915b5050505050905090565b5f6104e882610a39565b506104f282610abf565b9050919050565b61050b8282610506610af8565b610aff565b5050565b5f73ffffffffffffffffffffffffffffffffffffffff168273ffffffffffffffffffffffffffffffffffffffff160361057f575f6040517f64a0ae920000000000000000000000000000000000000000000000000000000081526004016105769190611da1565b60405180910390fd5b5f610592838361058d610af8565b610b11565b90508373ffffffffffffffffffffffffffffffffffffffff168173ffffffffffffffffffffffffffffffffffffffff1614610608578382826040517f64283d7b0000000000000000000000000000000000000000000000000000000081526004016105ff9392919061226c565b60405180910390fd5b50505050565b61062883838360405180602001604052805f815250610850565b505050565b5f61063782610a39565b9050919050565b5f8073ffffffffffffffffffffffffffffffffffffffff168273ffffffffffffffffffffffffffffffffffffffff16036106af575f6040517f89c62b640000000000000000000000000000000000000000000000000000000081526004016106a69190611da1565b60405180910390fd5b60035f8373ffffffffffffffffffffffffffffffffffffffff1673ffffffffffffffffffffffffffffffffffffffff1681526020019081526020015f20549050919050565b6106fc610d1c565b6107055f610da3565b565b5f60075f9054906101000a900473ffffffffffffffffffffffffffffffffffffffff16905090565b60606001805461073e9061223c565b80601f016020809104026020016040519081016040528092919081815260200182805461076a9061223c565b80156107b55780601f1061078c576101008083540402835291602001916107b5565b820191905f5260205f20905b81548152906001019060200180831161079857829003601f168201915b5050505050905090565b6107d16107ca610af8565b8383610e66565b5050565b5f60085f8154809291906107e8906122ce565b91905055905067016345785d8a0000816108029190612315565b3414610843576040517f08c379a000000000000000000000000000000000000000000000000000000000815260040161083a906123a0565b60405180910390fd5b61084d3382610fcf565b50565b61085b84848461050f565b61086f610866610af8565b85858585610fec565b50505050565b606061088082611198565b9050919050565b5f610890610d1c565b5f60085f8154809291906108a3906122ce565b9190505590506108b38482610fcf565b6108bd81846112a3565b8091505092915050565b5f60055f8473ffffffffffffffffffffffffffffffffffffffff1673ffffffffffffffffffffffffffffffffffffffff1681526020019081526020015f205f8373ffffffffffffffffffffffffffffffffffffffff1673ffffffffffffffffffffffffffffffffffffffff1681526020019081526020015f205f9054906101000a900460ff16905092915050565b61095d610d1c565b5f73ffffffffffffffffffffffffffffffffffffffff168173ffffffffffffffffffffffffffffffffffffffff16036109cd575f6040517f1e4fbdf70000000000000000000000000000000000000000000000000000000081526004016109c49190611da1565b60405180910390fd5b6109d681610da3565b50565b5f634906490660e01b7bffffffffffffffffffffffffffffffffffffffffffffffffffffffff1916827bffffffffffffffffffffffffffffffffffffffffffffffffffffffff19161480610a325750610a31826112fd565b5b9050919050565b5f80610a44836113de565b90505f73ffffffffffffffffffffffffffffffffffffffff168173ffffffffffffffffffffffffffffffffffffffff1603610ab657826040517f7e273289000000000000000000000000000000000000000000000000000000008152600401610aad9190611eac565b60405180910390fd5b80915050919050565b5f60045f8381526020019081526020015f205f9054906101000a900473ffffffffffffffffffffffffffffffffffffffff169050919050565b5f33905090565b610b0c8383836001611417565b505050565b5f80610b1c846113de565b90505f73ffffffffffffffffffffffffffffffffffffffff168373ffffffffffffffffffffffffffffffffffffffff1614610b5d57610b5c8184866115d6565b5b5f73ffffffffffffffffffffffffffffffffffffffff168173ffffffffffffffffffffffffffffffffffffffff1614610be857610b9c5f855f80611417565b600160035f8373ffffffffffffffffffffffffffffffffffffffff1673ffffffffffffffffffffffffffffffffffffffff1681526020019081526020015f205f82825403925050819055505b5f73ffffffffffffffffffffffffffffffffffffffff168573ffffffffffffffffffffffffffffffffffffffff1614610c6757600160035f8773ffffffffffffffffffffffffffffffffffffffff1673ffffffffffffffffffffffffffffffffffffffff1681526020019081526020015f205f82825401925050819055505b8460025f8681526020019081526020015f205f6101000a81548173ffffffffffffffffffffffffffffffffffffffff021916908373ffffffffffffffffffffffffffffffffffffffff160217905550838573ffffffffffffffffffffffffffffffffffffffff168273ffffffffffffffffffffffffffffffffffffffff167fddf252ad1be2c89b69c2b068fc378daa952ba7f163c4a11628f55a4df523b3ef60405160405180910390a4809150509392505050565b610d24610af8565b73ffffffffffffffffffffffffffffffffffffffff16610d42610707565b73ffffffffffffffffffffffffffffffffffffffff1614610da157610d65610af8565b6040517f118cdaa7000000000000000000000000000000000000000000000000000000008152600401610d989190611da1565b60405180910390fd5b565b5f60075f9054906101000a900473ffffffffffffffffffffffffffffffffffffffff1690508160075f6101000a81548173ffffffffffffffffffffffffffffffffffffffff021916908373ffffffffffffffffffffffffffffffffffffffff1602179055508173ffffffffffffffffffffffffffffffffffffffff168173ffffffffffffffffffffffffffffffffffffffff167f8be0079c531659141344cd1fd0a4f28419497f9722a3daafe3b4186f6b6457e060405160405180910390a35050565b5f73ffffffffffffffffffffffffffffffffffffffff168273ffffffffffffffffffffffffffffffffffffffff1603610ed657816040517f5b08ba18000000000000000000000000000000000000000000000000000000008152600401610ecd9190611da1565b60405180910390fd5b8060055f8573ffffffffffffffffffffffffffffffffffffffff1673ffffffffffffffffffffffffffffffffffffffff1681526020019081526020015f205f8473ffffffffffffffffffffffffffffffffffffffff1673ffffffffffffffffffffffffffffffffffffffff1681526020019081526020015f205f6101000a81548160ff0219169083151502179055508173ffffffffffffffffffffffffffffffffffffffff168373ffffffffffffffffffffffffffffffffffffffff167f17307eab39ab6107e8899845ad3d59bd9653f200f220920489ca2b5937696c3183604051610fc29190611c41565b60405180910390a3505050565b610fe8828260405180602001604052805f815250611699565b5050565b5f8373ffffffffffffffffffffffffffffffffffffffff163b1115611191578273ffffffffffffffffffffffffffffffffffffffff1663150b7a02868685856040518563ffffffff1660e01b815260040161104a9493929190612410565b6020604051808303815f875af192505050801561108557506040513d601f19601f82011682018060405250810190611082919061246e565b60015b611106573d805f81146110b3576040519150601f19603f3d011682016040523d82523d5f602084013e6110b8565b606091505b505f8151036110fe57836040517f64a0ae920000000000000000000000000000000000000000000000000000000081526004016110f59190611da1565b60405180910390fd5b805160208201fd5b63150b7a0260e01b7bffffffffffffffffffffffffffffffffffffffffffffffffffffffff1916817bffffffffffffffffffffffffffffffffffffffffffffffffffffffff19161461118f57836040517f64a0ae920000000000000000000000000000000000000000000000000000000081526004016111869190611da1565b60405180910390fd5b505b5050505050565b60606111a382610a39565b505f60065f8481526020019081526020015f2080546111c19061223c565b80601f01602080910402602001604051908101604052809291908181526020018280546111ed9061223c565b80156112385780601f1061120f57610100808354040283529160200191611238565b820191905f5260205f20905b81548152906001019060200180831161121b57829003601f168201915b505050505090505f6112486116bc565b90505f81510361125c57819250505061129e565b5f825111156112905780826040516020016112789291906124d3565b6040516020818303038152906040529250505061129e565b611299846116f9565b925050505b919050565b8060065f8481526020019081526020015f2090816112c19190612693565b507ff8e1a15aba9398e019f0b49df1a4fde98ee17ae345cb5f6b5e2c27f5033e8ce7826040516112f19190611eac565b60405180910390a15050565b5f7f80ac58cd000000000000000000000000000000000000000000000000000000007bffffffffffffffffffffffffffffffffffffffffffffffffffffffff1916827bffffffffffffffffffffffffffffffffffffffffffffffffffffffff191614806113c757507f5b5e139f000000000000000000000000000000000000000000000000000000007bffffffffffffffffffffffffffffffffffffffffffffffffffffffff1916827bffffffffffffffffffffffffffffffffffffffffffffffffffffffff1916145b806113d757506113d68261175f565b5b9050919050565b5f60025f8381526020019081526020015f205f9054906101000a900473ffffffffffffffffffffffffffffffffffffffff169050919050565b808061144f57505f73ffffffffffffffffffffffffffffffffffffffff168273ffffffffffffffffffffffffffffffffffffffff1614155b15611581575f61145e84610a39565b90505f73ffffffffffffffffffffffffffffffffffffffff168373ffffffffffffffffffffffffffffffffffffffff16141580156114c857508273ffffffffffffffffffffffffffffffffffffffff168173ffffffffffffffffffffffffffffffffffffffff1614155b80156114db57506114d981846108c7565b155b1561151d57826040517fa9fbf51f0000000000000000000000000000000000000000000000000000000081526004016115149190611da1565b60405180910390fd5b811561157f57838573ffffffffffffffffffffffffffffffffffffffff168273ffffffffffffffffffffffffffffffffffffffff167f8c5be1e5ebec7d5bd14f71427d1e84f3dd0314c0f7b2291e5b200ac8c7c3b92560405160405180910390a45b505b8360045f8581526020019081526020015f205f6101000a81548173ffffffffffffffffffffffffffffffffffffffff021916908373ffffffffffffffffffffffffffffffffffffffff16021790555050505050565b6115e18383836117c8565b611694575f73ffffffffffffffffffffffffffffffffffffffff168373ffffffffffffffffffffffffffffffffffffffff160361165557806040517f7e27328900000000000000000000000000000000000000000000000000000000815260040161164c9190611eac565b60405180910390fd5b81816040517f177e802f00000000000000000000000000000000000000000000000000000000815260040161168b929190612762565b60405180910390fd5b505050565b6116a38383611888565b6116b76116ae610af8565b5f858585610fec565b505050565b60606040518060400160405280601781526020017f68747470733a2f2f626c61626c612e636f6d2f6e66742f000000000000000000815250905090565b606061170482610a39565b505f61170e6116bc565b90505f81511161172c5760405180602001604052805f815250611757565b806117368461197b565b6040516020016117479291906124d3565b6040516020818303038152906040525b915050919050565b5f7f01ffc9a7000000000000000000000000000000000000000000000000000000007bffffffffffffffffffffffffffffffffffffffffffffffffffffffff1916827bffffffffffffffffffffffffffffffffffffffffffffffffffffffff1916149050919050565b5f8073ffffffffffffffffffffffffffffffffffffffff168373ffffffffffffffffffffffffffffffffffffffff161415801561187f57508273ffffffffffffffffffffffffffffffffffffffff168473ffffffffffffffffffffffffffffffffffffffff161480611840575061183f84846108c7565b5b8061187e57508273ffffffffffffffffffffffffffffffffffffffff1661186683610abf565b73ffffffffffffffffffffffffffffffffffffffff16145b5b90509392505050565b5f73ffffffffffffffffffffffffffffffffffffffff168273ffffffffffffffffffffffffffffffffffffffff16036118f8575f6040517f64a0ae920000000000000000000000000000000000000000000000000000000081526004016118ef9190611da1565b60405180910390fd5b5f61190483835f610b11565b90505f73ffffffffffffffffffffffffffffffffffffffff168173ffffffffffffffffffffffffffffffffffffffff1614611976575f6040517f73c6ac6e00000000000000000000000000000000000000000000000000000000815260040161196d9190611da1565b60405180910390fd5b505050565b60605f600161198984611a45565b0190505f8167ffffffffffffffff8111156119a7576119a6611f35565b5b6040519080825280601f01601f1916602001820160405280156119d95781602001600182028036833780820191505090505b5090505f82602083010190505b600115611a3a578080600190039150507f3031323334353637383961626364656600000000000000000000000000000000600a86061a8153600a8581611a2f57611a2e612789565b5b0494505f85036119e6575b819350505050919050565b5f805f90507a184f03e93ff9f4daa797ed6e38ed64bf6a1f0100000000000000008310611aa1577a184f03e93ff9f4daa797ed6e38ed64bf6a1f0100000000000000008381611a9757611a96612789565b5b0492506040810190505b6d04ee2d6d415b85acef81000000008310611ade576d04ee2d6d415b85acef81000000008381611ad457611ad3612789565b5b0492506020810190505b662386f26fc100008310611b0d57662386f26fc100008381611b0357611b02612789565b5b0492506010810190505b6305f5e1008310611b36576305f5e1008381611b2c57611b2b612789565b5b0492506008810190505b6127108310611b5b576127108381611b5157611b50612789565b5b0492506004810190505b60648310611b7e5760648381611b7457611b73612789565b5b0492506002810190505b600a8310611b8d576001810190505b80915050919050565b5f604051905090565b5f80fd5b5f80fd5b5f7fffffffff0000000000000000000000000000000000000000000000000000000082169050919050565b611bdb81611ba7565b8114611be5575f80fd5b50565b5f81359050611bf681611bd2565b92915050565b5f60208284031215611c1157611c10611b9f565b5b5f611c1e84828501611be8565b91505092915050565b5f8115159050919050565b611c3b81611c27565b82525050565b5f602082019050611c545f830184611c32565b92915050565b5f81519050919050565b5f82825260208201905092915050565b5f5b83811015611c91578082015181840152602081019050611c76565b5f8484015250505050565b5f601f19601f8301169050919050565b5f611cb682611c5a565b611cc08185611c64565b9350611cd0818560208601611c74565b611cd981611c9c565b840191505092915050565b5f6020820190508181035f830152611cfc8184611cac565b905092915050565b5f819050919050565b611d1681611d04565b8114611d20575f80fd5b50565b5f81359050611d3181611d0d565b92915050565b5f60208284031215611d4c57611d4b611b9f565b5b5f611d5984828501611d23565b91505092915050565b5f73ffffffffffffffffffffffffffffffffffffffff82169050919050565b5f611d8b82611d62565b9050919050565b611d9b81611d81565b82525050565b5f602082019050611db45f830184611d92565b92915050565b611dc381611d81565b8114611dcd575f80fd5b50565b5f81359050611dde81611dba565b92915050565b5f8060408385031215611dfa57611df9611b9f565b5b5f611e0785828601611dd0565b9250506020611e1885828601611d23565b9150509250929050565b5f805f60608486031215611e3957611e38611b9f565b5b5f611e4686828701611dd0565b9350506020611e5786828701611dd0565b9250506040611e6886828701611d23565b9150509250925092565b5f60208284031215611e8757611e86611b9f565b5b5f611e9484828501611dd0565b91505092915050565b611ea681611d04565b82525050565b5f602082019050611ebf5f830184611e9d565b92915050565b611ece81611c27565b8114611ed8575f80fd5b50565b5f81359050611ee981611ec5565b92915050565b5f8060408385031215611f0557611f04611b9f565b5b5f611f1285828601611dd0565b9250506020611f2385828601611edb565b9150509250929050565b5f80fd5b5f80fd5b7f4e487b71000000000000000000000000000000000000000000000000000000005f52604160045260245ffd5b611f6b82611c9c565b810181811067ffffffffffffffff82111715611f8a57611f89611f35565b5b80604052505050565b5f611f9c611b96565b9050611fa88282611f62565b919050565b5f67ffffffffffffffff821115611fc757611fc6611f35565b5b611fd082611c9c565b9050602081019050919050565b828183375f83830152505050565b5f611ffd611ff884611fad565b611f93565b90508281526020810184848401111561201957612018611f31565b5b612024848285611fdd565b509392505050565b5f82601f8301126120405761203f611f2d565b5b8135612050848260208601611feb565b91505092915050565b5f805f806080858703121561207157612070611b9f565b5b5f61207e87828801611dd0565b945050602061208f87828801611dd0565b93505060406120a087828801611d23565b925050606085013567ffffffffffffffff8111156120c1576120c0611ba3565b5b6120cd8782880161202c565b91505092959194509250565b5f67ffffffffffffffff8211156120f3576120f2611f35565b5b6120fc82611c9c565b9050602081019050919050565b5f61211b612116846120d9565b611f93565b90508281526020810184848401111561213757612136611f31565b5b612142848285611fdd565b509392505050565b5f82601f83011261215e5761215d611f2d565b5b813561216e848260208601612109565b91505092915050565b5f806040838503121561218d5761218c611b9f565b5b5f61219a85828601611dd0565b925050602083013567ffffffffffffffff8111156121bb576121ba611ba3565b5b6121c78582860161214a565b9150509250929050565b5f80604083850312156121e7576121e6611b9f565b5b5f6121f485828601611dd0565b925050602061220585828601611dd0565b9150509250929050565b7f4e487b71000000000000000000000000000000000000000000000000000000005f52602260045260245ffd5b5f600282049050600182168061225357607f821691505b6020821081036122665761226561220f565b5b50919050565b5f60608201905061227f5f830186611d92565b61228c6020830185611e9d565b6122996040830184611d92565b949350505050565b7f4e487b71000000000000000000000000000000000000000000000000000000005f52601160045260245ffd5b5f6122d882611d04565b91507fffffffffffffffffffffffffffffffffffffffffffffffffffffffffffffffff820361230a576123096122a1565b5b600182019050919050565b5f61231f82611d04565b915061232a83611d04565b925082820261233881611d04565b9150828204841483151761234f5761234e6122a1565b5b5092915050565b7f4e6f7420656e6f7567682066756e64732073656e7400000000000000000000005f82015250565b5f61238a601583611c64565b915061239582612356565b602082019050919050565b5f6020820190508181035f8301526123b78161237e565b9050919050565b5f81519050919050565b5f82825260208201905092915050565b5f6123e2826123be565b6123ec81856123c8565b93506123fc818560208601611c74565b61240581611c9c565b840191505092915050565b5f6080820190506124235f830187611d92565b6124306020830186611d92565b61243d6040830185611e9d565b818103606083015261244f81846123d8565b905095945050505050565b5f8151905061246881611bd2565b92915050565b5f6020828403121561248357612482611b9f565b5b5f6124908482850161245a565b91505092915050565b5f81905092915050565b5f6124ad82611c5a565b6124b78185612499565b93506124c7818560208601611c74565b80840191505092915050565b5f6124de82856124a3565b91506124ea82846124a3565b91508190509392505050565b5f819050815f5260205f209050919050565b5f6020601f8301049050919050565b5f82821b905092915050565b5f600883026125527fffffffffffffffffffffffffffffffffffffffffffffffffffffffffffffffff82612517565b61255c8683612517565b95508019841693508086168417925050509392505050565b5f819050919050565b5f61259761259261258d84611d04565b612574565b611d04565b9050919050565b5f819050919050565b6125b08361257d565b6125c46125bc8261259e565b848454612523565b825550505050565b5f90565b6125d86125cc565b6125e38184846125a7565b505050565b5b81811015612606576125fb5f826125d0565b6001810190506125e9565b5050565b601f82111561264b5761261c816124f6565b61262584612508565b81016020851015612634578190505b61264861264085612508565b8301826125e8565b50505b505050565b5f82821c905092915050565b5f61266b5f1984600802612650565b1980831691505092915050565b5f612683838361265c565b9150826002028217905092915050565b61269c82611c5a565b67ffffffffffffffff8111156126b5576126b4611f35565b5b6126bf825461223c565b6126ca82828561260a565b5f60209050601f8311600181146126fb575f84156126e9578287015190505b6126f38582612678565b86555061275a565b601f198416612709866124f6565b5f5b828110156127305784890151825560018201915060208501945060208101905061270b565b8683101561274d5784890151612749601f89168261265c565b8355505b6001600288020188555050505b505050505050565b5f6040820190506127755f830185611d92565b6127826020830184611e9d565b9392505050565b7f4e487b71000000000000000000000000000000000000000000000000000000005f52601260045260245ffdfea2646970667358221220f3e4fcde899f1a75ebdca01d482ade31de02d4e05fa4d7ee2ab2870b76e45f6064736f6c63430008150033",
  "immutableReferences": {},
  "source": "// SPDX-License-Identifier: MIT\r\npragma solidity ^0.8.4;\r\n\r\nimport {ERC721} from \"@openzeppelin/contracts/token/ERC721/ERC721.sol\";\r\nimport {ERC721URIStorage} from \"@openzeppelin/contracts/token/ERC721/extensions/ERC721URIStorage.sol\";\r\nimport {Ownable} from \"@openzeppelin/contracts/access/Ownable.sol\";\r\n\r\ncontract Spacebear is ERC721, ERC721URIStorage, Ownable {\r\n\r\n    uint256 private _nextTokenId;\r\n\r\n    constructor(address initial_owner)\r\n    ERC721(\"SpaceBear\", \"SBR\") \r\n    Ownable(initial_owner)\r\n    {}\r\n\r\n    // _baseURI => to save base uri\r\n    function _baseURI() internal pure override returns (string memory) {\r\n        return \"https://blabla.com/nft/\";\r\n    }\r\n\r\n    // safeMint(address to, string memory uri)\r\n    function safeMint(address to, string memory uri) \r\n    public \r\n    onlyOwner\r\n    returns (uint256)\r\n    {\r\n        uint256 tokenId = _nextTokenId++;\r\n        _safeMint(to, tokenId);\r\n        _setTokenURI(tokenId, uri);\r\n        return tokenId;\r\n    }\r\n\r\n    function buyToken() public payable {\r\n        uint256 tokenId = _nextTokenId++;\r\n        require(msg.value == tokenId * 0.1 ether, \"Not enough funds sent\");\r\n        _safeMint(msg.sender, tokenId);\r\n    }\r\n\r\n    // override function needed in solidity,\r\n    // because 2 function from imported library \r\n    // have same name\r\n    function tokenURI(uint256 tokenId)\r\n    public\r\n    view\r\n    override(ERC721, ERC721URIStorage)\r\n    returns (string memory)\r\n    {\r\n        return super.tokenURI(tokenId);\r\n    }\r\n\r\n    function supportsInterface(bytes4 interfaceId) \r\n    public \r\n    view \r\n    override(ERC721, ERC721URIStorage)\r\n    returns (bool)\r\n    {\r\n        return super.supportsInterface(interfaceId);\r\n    }\r\n}",
  "sourcePath": "D:\\1. COMPUTER SELF-LEARNING\\blockchain\\NFT\\nft-project\\truffle-mine\\contracts\\SpacebearWithConsoleLog.sol",
  "compiler": {
    "name": "solc",
    "version": "0.8.21+commit.d9974bed.Emscripten.clang"
  },
  "schemaVersion": "3.4.16",
  "updatedAt": "2025-09-13T10:10:02.419Z",
  "devdoc": {
    "errors": {
      "ERC721IncorrectOwner(address,uint256,address)": [
        {
          "details": "Indicates an error related to the ownership over a particular token. Used in transfers.",
          "params": {
            "owner": "Address of the current owner of a token.",
            "sender": "Address whose tokens are being transferred.",
            "tokenId": "Identifier number of a token."
          }
        }
      ],
      "ERC721InsufficientApproval(address,uint256)": [
        {
          "details": "Indicates a failure with the `operator`s approval. Used in transfers.",
          "params": {
            "operator": "Address that may be allowed to operate on tokens without being their owner.",
            "tokenId": "Identifier number of a token."
          }
        }
      ],
      "ERC721InvalidApprover(address)": [
        {
          "details": "Indicates a failure with the `approver` of a token to be approved. Used in approvals.",
          "params": {
            "approver": "Address initiating an approval operation."
          }
        }
      ],
      "ERC721InvalidOperator(address)": [
        {
          "details": "Indicates a failure with the `operator` to be approved. Used in approvals.",
          "params": {
            "operator": "Address that may be allowed to operate on tokens without being their owner."
          }
        }
      ],
      "ERC721InvalidOwner(address)": [
        {
          "details": "Indicates that an address can't be an owner. For example, `address(0)` is a forbidden owner in ERC-20. Used in balance queries.",
          "params": {
            "owner": "Address of the current owner of a token."
          }
        }
      ],
      "ERC721InvalidReceiver(address)": [
        {
          "details": "Indicates a failure with the token `receiver`. Used in transfers.",
          "params": {
            "receiver": "Address to which tokens are being transferred."
          }
        }
      ],
      "ERC721InvalidSender(address)": [
        {
          "details": "Indicates a failure with the token `sender`. Used in transfers.",
          "params": {
            "sender": "Address whose tokens are being transferred."
          }
        }
      ],
      "ERC721NonexistentToken(uint256)": [
        {
          "details": "Indicates a `tokenId` whose `owner` is the zero address.",
          "params": {
            "tokenId": "Identifier number of a token."
          }
        }
      ],
      "OwnableInvalidOwner(address)": [
        {
          "details": "The owner is not a valid owner account. (eg. `address(0)`)"
        }
      ],
      "OwnableUnauthorizedAccount(address)": [
        {
          "details": "The caller account is not authorized to perform an operation."
        }
      ]
    },
    "events": {
      "Approval(address,address,uint256)": {
        "details": "Emitted when `owner` enables `approved` to manage the `tokenId` token."
      },
      "ApprovalForAll(address,address,bool)": {
        "details": "Emitted when `owner` enables or disables (`approved`) `operator` to manage all of its assets."
      },
      "BatchMetadataUpdate(uint256,uint256)": {
        "details": "This event emits when the metadata of a range of tokens is changed. So that the third-party platforms such as NFT market could timely update the images and related attributes of the NFTs."
      },
      "MetadataUpdate(uint256)": {
        "details": "This event emits when the metadata of a token is changed. So that the third-party platforms such as NFT market could timely update the images and related attributes of the NFT."
      },
      "Transfer(address,address,uint256)": {
        "details": "Emitted when `tokenId` token is transferred from `from` to `to`."
      }
    },
    "kind": "dev",
    "methods": {
      "approve(address,uint256)": {
        "details": "Gives permission to `to` to transfer `tokenId` token to another account. The approval is cleared when the token is transferred. Only a single account can be approved at a time, so approving the zero address clears previous approvals. Requirements: - The caller must own the token or be an approved operator. - `tokenId` must exist. Emits an {Approval} event."
      },
      "balanceOf(address)": {
        "details": "Returns the number of tokens in ``owner``'s account."
      },
      "getApproved(uint256)": {
        "details": "Returns the account approved for `tokenId` token. Requirements: - `tokenId` must exist."
      },
      "isApprovedForAll(address,address)": {
        "details": "Returns if the `operator` is allowed to manage all of the assets of `owner`. See {setApprovalForAll}"
      },
      "name()": {
        "details": "Returns the token collection name."
      },
      "owner()": {
        "details": "Returns the address of the current owner."
      },
      "ownerOf(uint256)": {
        "details": "Returns the owner of the `tokenId` token. Requirements: - `tokenId` must exist."
      },
      "renounceOwnership()": {
        "details": "Leaves the contract without owner. It will not be possible to call `onlyOwner` functions. Can only be called by the current owner. NOTE: Renouncing ownership will leave the contract without an owner, thereby disabling any functionality that is only available to the owner."
      },
      "safeTransferFrom(address,address,uint256)": {
        "details": "Safely transfers `tokenId` token from `from` to `to`, checking first that contract recipients are aware of the ERC-721 protocol to prevent tokens from being forever locked. Requirements: - `from` cannot be the zero address. - `to` cannot be the zero address. - `tokenId` token must exist and be owned by `from`. - If the caller is not `from`, it must have been allowed to move this token by either {approve} or   {setApprovalForAll}. - If `to` refers to a smart contract, it must implement {IERC721Receiver-onERC721Received}, which is called upon   a safe transfer. Emits a {Transfer} event."
      },
      "safeTransferFrom(address,address,uint256,bytes)": {
        "details": "Safely transfers `tokenId` token from `from` to `to`. Requirements: - `from` cannot be the zero address. - `to` cannot be the zero address. - `tokenId` token must exist and be owned by `from`. - If the caller is not `from`, it must be approved to move this token by either {approve} or {setApprovalForAll}. - If `to` refers to a smart contract, it must implement {IERC721Receiver-onERC721Received}, which is called upon   a safe transfer. Emits a {Transfer} event."
      },
      "setApprovalForAll(address,bool)": {
        "details": "Approve or remove `operator` as an operator for the caller. Operators can call {transferFrom} or {safeTransferFrom} for any token owned by the caller. Requirements: - The `operator` cannot be the address zero. Emits an {ApprovalForAll} event."
      },
      "symbol()": {
        "details": "Returns the token collection symbol."
      },
      "transferFrom(address,address,uint256)": {
        "details": "Transfers `tokenId` token from `from` to `to`. WARNING: Note that the caller is responsible to confirm that the recipient is capable of receiving ERC-721 or else they may be permanently lost. Usage of {safeTransferFrom} prevents loss, though the caller must understand this adds an external call which potentially creates a reentrancy vulnerability. Requirements: - `from` cannot be the zero address. - `to` cannot be the zero address. - `tokenId` token must be owned by `from`. - If the caller is not `from`, it must be approved to move this token by either {approve} or {setApprovalForAll}. Emits a {Transfer} event."
      },
      "transferOwnership(address)": {
        "details": "Transfers ownership of the contract to a new account (`newOwner`). Can only be called by the current owner."
      }
    },
    "version": 1
  },
  "userdoc": {
    "kind": "user",
    "methods": {},
    "version": 1
  }
}